:020000040000FA
:0400000072EF0CF09F
:10060000003F065B4F666D7D077F6F777C395E79B3
:10061000710020EE01F011EE00F01F0EDBCFE3FFC2
:10062000E806FCE220EEC0F011EE20F01F0EDBCF5A
:10063000E3FFE806FCE220EEA0F011EE40F01F0E12
:10064000DBCFE3FFE806FCE220EE80F011EE60F085
:100650001F0EDBCFE3FFE806FCE220EE21F011EEF7
:1006600080F00E0EDBCFE3FFE806FCE220EE3CF06C
:1006700011EE9BF0070EDBCFE3FFE806FCE220EE75
:1006800030F011EE8FF00B0EDBCFE3FFE806FCE25B
:1006900022EE00F011EEA3F0270EDBCFE3FFE80619
:1006A000FCE2000E0101F76F100EF66F000EF46F02
:1006B000000EF36F000E956E000E926E000E836EAC
:1006C00072EC0DF04CEC0EF03DEC0EF05A505B105D
:1006D000D8A46DEF03F06FEF03F036EF06F05A4A3F
:1006E0005B2A36EF06F0ADEC0CF0000E836E000EC8
:1006F000596E000E586E36EC0CF0010EF7EC0BF054
:10070000000E0101F96F800EF925D96EDA6A010E2B
:10071000DA22DF509DEC0DF00101F92B0E0EF96588
:1007200094EF03F096EF03F083EF03F00B0E456EAA
:10073000B80E446EE5EC0CF0000E0101F96FE6EF27
:1007400003F0000E836E070E456ED00E446EE5EC8E
:100750000CF00101F951020DA30EF324D96E010E24
:10076000F420DA6EDF50836EF951020DA30EF324EC
:10077000D96E010EF420DA6EDECF44F0DDCF45F005
:10078000000E476E640E466E10EC0EF044C052F040
:1007900045C053F0FDEC0DF0000E0101F86F94829E
:1007A000020E456EBC0E446EE5EC0CF09492010115
:1007B000F82B020EF865DFEF03F0E1EF03F0CFEF67
:1007C00003F0000E816E000E836EF92BF951546E0A
:1007D000556A5A50545C5550800A566E5B50800AD8
:1007E0005658D8A0F6EF03F0F8EF03F0A1EF03F0AE
:1007F00036EC0CF0010EF7EC0BF0000E0101F96F76
:100800009B0EF925D96EDA6A010EDA22DF509DECD3
:100810000DF00101F92B070EF96511EF04F013EF4C
:1008200004F000EF04F0000EF56F000EF46F010EFF
:10083000F36F9CEC08F047EC0EF00101F651441800
:1008400009E1F7514518D8B428EF04F02AEF04F075
:1008500098EF05F047EC0EF044C0F6F145C0F7F113
:100860000101F6A136EF04F038EF04F08AEF04F04E
:10087000D8905834D96E5934DA6ECB0ED926010E81
:10088000DA22080EDE6E000EDD6ED8905834D96E76
:100890005934DA6EA30ED926010EDA22D8905834D4
:1008A000E16E5934E26ECB0EE126010EE222DE50FB
:1008B000E61809E1DE50E618D8B461EF04F063EF02
:1008C00004F065EF04F0010EF56F030E536E200E79
:1008D000526EFDEC0DF0000E0101F86F9482000ED7
:1008E000456EC80E446EE5EC0CF094920101F82BB5
:1008F000020EF8657EEF04F080EF04F06EEF04F076
:10090000000E816E000E836E600E4C6E010E4D6EF9
:1009100059EC09F00101F6A390EF04F092EF04F016
:10092000E4EF04F0D8905834D96E5934DA6ECB0E17
:10093000D926010EDA22040EDE6E000EDD6ED8908E
:100940005834D96E5934DA6EA30ED926010EDA2244
:10095000D8905834E16E5934E26ECB0EE126010E88
:10096000E222DE50E61809E1DE50E618D8B4BBEF0B
:1009700004F0BDEF04F0BFEF04F0010EF56F010EBF
:10098000536E900E526EFDEC0DF0000E0101F86FEB
:100990009482000E456EC80E446EE5EC0CF0949205
:1009A0000101F82B020EF865D8EF04F0DAEF04F03D
:1009B000C8EF04F0000E816E000E836E400E4C6E88
:1009C000010E4D6E59EC09F00101F6A5EAEF04F0B5
:1009D000ECEF04F03EEF05F0D8905834D96E59345E
:1009E000DA6ECB0ED926010EDA22020EDE6E000E72
:1009F000DD6ED8905834D96E5934DA6EA30ED926EC
:100A0000010EDA22D8905834E16E5934E26ECB0EE2
:100A1000E126010EE222DE50E61809E1DE50E6187A
:100A2000D8B415EF05F017EF05F019EF05F0010E3A
:100A3000F56F000E536EC80E526EFDEC0DF0000EF9
:100A40000101F86F9482000E456EC80E446EE5EC0D
:100A50000CF094920101F82B020EF86532EF05F0CC
:100A600034EF05F022EF05F0000E816E000E836E6C
:100A7000200E4C6E010E4D6E59EC09F00101F6A7E7
:100A800044EF05F046EF05F098EF05F0D8905834A4
:100A9000D96E5934DA6ECB0ED926010EDA22010E48
:100AA000DE6E000EDD6ED8905834D96E5934DA6E91
:100AB000A30ED926010EDA22D8905834E16E5934AB
:100AC000E26ECB0EE126010EE222DE50E61809E1CD
:100AD000DE50E618D8B46FEF05F071EF05F073EF54
:100AE00005F0010EF56F000E536E640E526EFDECB4
:100AF0000DF0000E0101F86F9482000E456EC80ED5
:100B0000446EE5EC0CF094920101F82B020EF865AE
:100B10008CEF05F08EEF05F07CEF05F0000E816E96
:100B2000000E836E000E4C6E010E4D6E59EC09F0F6
:100B30000101F551D8B49FEF05F0A1EF05F0E3EF07
:100B400005F036EC0CF0010EF7EC0BF0000E010195
:100B5000F96F8F0EF925D96EDA6A010EDA22DF50AD
:100B60009DEC0DF00101F92B0B0EF965BAEF05F0C4
:100B7000BCEF05F0A9EF05F0000EF96F070E456E0A
:100B8000D00E446EE5EC0CF0000E836E070E456E41
:100B9000D00E446EE5EC0CF083680101F92B020ED7
:100BA000F965D5EF05F0D7EF05F0BEEF05F0000EC3
:100BB000596E000E586E000E5B6E000E5A6E000EDF
:100BC000F46F000EF36F140E58185910D8A4EBEF01
:100BD00005F0EDEF05F010EF06F0000EF96F070ECF
:100BE000456ED00E446EE5EC0CF0000E836E070EE1
:100BF000456ED00E446EE5EC0CF083680101F92BD4
:100C0000020EF96506EF06F008EF06F0EFEF05F0CB
:100C1000000E5B6E000E5A6E000EF46F000EF36F46
:100C20005A50581807E15B505918D8A41AEF06F02B
:100C30001CEF06F066EF03F00B0E456EB80E446E27
:100C4000E5EC0CF036EC0CF0010EF7EC0BF00B0EB3
:100C5000456EB80E446EE5EC0CF05A4A5B2A000E65
:100C60000101F46F000EF36F66EF03F0F3C154F06F
:100C7000F4C155F05550000AD8B441EF06F066EFC4
:100C800003F05450000AD8B473EF03F0010AD8B44B
:100C900019EF04F066EF03F000EF00F045BE5CEFE3
:100CA00006F0455007E1080E445CD8B05AEF06F054
:100CB0005CEF06F086EF06F046504710D8B463EFBD
:100CC00006F065EF06F075EF06F044C048F0010E3F
:100CD000496E482A6EEF06F0D8904936482E6CEFE0
:100CE00006F04950921274EF07F044C048F0010E2C
:100CF000496E482A7EEF06F0D8904936482E7CEFA0
:100D000006F04950FF0A921674EF07F045BE94EFC3
:100D100006F0455007E1100E445CD8B092EF06F0A3
:100D200094EF06F0C2EF06F046504710D8B49BEFA0
:100D300006F09DEF06F0AFEF06F044C048F0F80E65
:100D40004826010E496E482AA8EF06F0D890493689
:100D5000482EA6EF06F04950931274EF07F044C0F6
:100D600048F0F80E4826010E496E482ABAEF06F000
:100D7000D8904936482EB8EF06F04950FF0A93162E
:100D800074EF07F045BED0EF06F0455007E1180EAE
:100D9000445CD8B0CEEF06F0D0EF06F0FEEF06F0E0
:100DA00046504710D8B4D7EF06F0D9EF06F0EBEF76
:100DB00006F044C048F0F00E4826010E496E482A5D
:100DC000E4EF06F0D8904936482EE2EF06F049509D
:100DD000941274EF07F044C048F0F00E4826010E5C
:100DE000496E482AF6EF06F0D8904936482EF4EFBF
:100DF00006F04950FF0A941674EF07F045BE0CEF59
:100E000007F0455007E1200E445CD8B00AEF07F028
:100E10000CEF07F03AEF07F046504710D8B413EF45
:100E200007F015EF07F027EF07F044C048F0E80E91
:100E30004826010E496E482A20EF07F0D89049361F
:100E4000482E1EEF07F04950951274EF07F044C08A
:100E500048F0E80E4826010E496E482A32EF07F0A6
:100E6000D8904936482E30EF07F04950FF0A9516C2
:100E700074EF07F045BE48EF07F0455007E1280E34
:100E8000445CD8B046EF07F048EF07F074EF07F086
:100E900046504710D8B44FEF07F051EF07F063EF1B
:100EA00007F044C048F0E00E4826010E496E482A7B
:100EB0005CEF07F0D8904936482E5AEF07F04950BA
:100EC000961274EF07F044C048F0E00E4826010E79
:100ED000496E482A6EEF07F0D8904936482E6CEFDD
:100EE00007F04950FF0A9616120045BE83EF07F03F
:100EF000455007E1080E445CD8B081EF07F083EF5E
:100F000007F0ADEF07F046504710D8B48AEF07F06E
:100F10008CEF07F09CEF07F044C048F0010E496EDB
:100F2000482A95EF07F0D8904936482E93EF07F0FE
:100F3000495080129BEF08F044C048F0010E496E02
:100F4000482AA5EF07F0D8904936482EA3EF07F0BE
:100F50004950FF0A80169BEF08F045BEBBEF07F033
:100F6000455007E1100E445CD8B0B9EF07F0BBEF75
:100F700007F0E9EF07F0F80E4426FF0E4522465031
:100F80004710D8B4C6EF07F0C8EF07F0D8EF07F066
:100F900044C048F0010E496E482AD1EF07F0D890BE
:100FA0004936482ECFEF07F0495081129BEF08F0E9
:100FB00044C048F0010E496E482AE1EF07F0D8908E
:100FC0004936482EDFEF07F04950FF0A81169BEFA4
:100FD00008F045BEF7EF07F0455007E1180E445CF6
:100FE000D8B0F5EF07F0F7EF07F025EF08F0F00EB7
:100FF0004426FF0E452246504710D8B402EF08F0B1
:1010000004EF08F014EF08F044C048F0010E496EF8
:10101000482A0DEF08F0D8904936482E0BEF08F01B
:10102000495082129BEF08F044C048F0010E496E0F
:10103000482A1DEF08F0D8904936482E1BEF08F0DB
:101040004950FF0A82169BEF08F045BE33EF08F0C7
:10105000455007E1200E445CD8B031EF08F033EF83
:1010600008F061EF08F0E80E4426FF0E45224650D6
:101070004710D8B43EEF08F040EF08F050EF08F00A
:1010800044C048F0010E496E482A49EF08F0D89054
:101090004936482E47EF08F0495083129BEF08F07D
:1010A00044C048F0010E496E482A59EF08F0D89024
:1010B0004936482E57EF08F04950FF0A83169BEF38
:1010C00008F045BE6FEF08F0455007E1280E445C7C
:1010D000D8B06DEF08F06FEF08F09BEF08F0E00E6E
:1010E0004426FF0E452246504710D8B47AEF08F048
:1010F0007CEF08F08CEF08F044C048F0010E496E18
:10110000482A85EF08F0D8904936482E83EF08F03A
:10111000495084129BEF08F044C048F0010E496E1C
:10112000482A95EF08F0D8904936482E93EF08F0FA
:101130004950FF0A8416120083CF49F00F0E951212
:10114000000E4D6EF80E93164DC044F0010E456E24
:10115000442AADEF08F0D8904536442EABEF08F0A6
:1011600045509312070E81124DC044F0010E456E9A
:10117000442ABDEF08F0D8904536442EBBEF08F066
:101180004550FF0A8116000E4B6E000E4A6E4A4A09
:101190004B2A4BBED5EF08F04B5009E10A0E4A5CD2
:1011A000D8A0D5EF08F0D7EF08F0C7EF08F0000E91
:1011B0004C6E4CC044F0010E456E442AE2EF08F03C
:1011C000D8904536442EE0EF08F0455083140009CE
:1011D000D8A4EDEF08F0EFEF08F007EF09F04D505D
:1011E000040DF3504C24446E010E456E000E466E05
:1011F000442AFEEF08F0D89045364636442EFBEFE1
:1012000008F045505E1246505F1221EF09F04D5034
:10121000040DF3504C24446E010E456E000E466ED4
:10122000442A16EF09F0D89045364636442E13EF7F
:1012300009F0451C476E461C486E47505E164850E4
:101240005F164C2A030E4C6428EF09F02AEF09F0D0
:10125000D9EF08F04D2A020E4D6431EF09F033EF5B
:1012600009F0A2EF08F05E505C1807E15F505D18CE
:10127000D8A43DEF09F03FEF09F042EF09F067060F
:1012800048EF09F00A0E676E5EC05CF05FC05DF06B
:101290006750D8A44EEF09F050EF09F054EF09F071
:1012A0005CC060F05DC061F049C083FF000E956EC8
:1012B000120036EC0CF0400EF7EC0BF0000E4E6E08
:1012C0004E504C24D96E000E4D20DA6EDF509DEC4E
:1012D0000DF04E2A1F0E4E6470EF09F072EF09F008
:1012E00060EF09F08C0EF7EC0BF0000E9DEC0DF0AA
:1012F000010E9DEC0DF0CC0EF7EC0BF0020E9DEC08
:101300000DF0030E9DEC0DF0584A592A050E5818A1
:101310005910D8A48EEF09F090EF09F09FEF09F073
:10132000840EF7EC0BF0420E9DEC0DF04F0E9DEC91
:101330000DF04D0E9DEC0DF0210E9DEC0DF00A0E02
:1013400058185910D8A4A7EF09F0A9EF09F0BEEF7B
:1013500009F0830EF7EC0BF04F0E9DEC0DF0540EE0
:101360009DEC0DF0490E9DEC0DF04D0E9DEC0DF039
:101370004F0E9DEC0DF0210E9DEC0DF00F0E581848
:101380005910D8A4C6EF09F0C8EF09F0E3EF09F04F
:10139000820EF7EC0BF0500E9DEC0DF0450E9DEC1F
:1013A0000DF0520E9DEC0DF0460E9DEC0DF0450E2D
:1013B0009DEC0DF0490E9DEC0DF0540E9DEC0DF0E2
:1013C0004F0E9DEC0DF0140E58185910D8A4EBEFE9
:1013D00009F0EDEF09F00EEF0AF0810EF7EC0BF0DB
:1013E0002A0E9DEC0DF0500E9DEC0DF0410E9DEC83
:1013F0000DF0520E9DEC0DF0410E9DEC0DF0420EE5
:101400009DEC0DF0450E9DEC0DF04E0E9DEC0DF09B
:10141000530E9DEC0DF02A0E9DEC0DF01200000E07
:10142000956E000E456E020E446E000E476E000E65
:10143000466E75EC07F0000E456E030E446E000E0E
:10144000476E000E466E75EC07F0000E456E040EFA
:10145000446E000E476E000E466E75EC07F0000EEF
:10146000456E050E446E000E476E000E466E75EC1E
:1014700007F0000E836E99EF0AF0010E6524F66EF8
:10148000F76A060EF7220800F5CF83FF000E456EBF
:10149000020E446E000E476E010E466E75EC07F0AC
:1014A000010E666EB6EF0AF0010E6424F66EF76A5E
:1014B000060EF7220800F5CF83FF000E456E030EDF
:1014C000446E000E476E010E466E75EC07F0020E7C
:1014D000666EB6EF0AF0010E6324F66EF76A060E2A
:1014E000F7220800F5CF83FF000E456E040E446E10
:1014F000000E476E010E466E75EC07F0030E666E29
:10150000B6EF0AF0010E6224F66EF76A060EF722B5
:101510000800F5CF83FF000E456E050E446E000EE9
:10152000476E010E466E75EC07F0000E666EB6EF64
:101530000AF066504A6E4B6A4B50000AD8B4A3EFCB
:101540000AF095EF0AF04A50000AD8B43DEF0AF0CD
:10155000010AD8B454EF0AF0030AD8B46BEF0AF0CA
:10156000010AD8B482EF0AF095EF0AF01200000EDB
:101570004D6E4BBEC0EF0AF0BEEF0AF0CAEF0AF0A4
:101580004B1E4A1E491E486C000E49224A224B221D
:10159000010E4D6E47BED1EF0AF0CFEF0AF0DBEF40
:1015A0000AF0471E461E451E446C000E4522462288
:1015B0004722010E4D1A000E4E6E000E4F6E000EA9
:1015C000506E000E516E485049104A104B10D8B45E
:1015D000ECEF0AF0EEEF0AF024EF0BF0010E4C6E88
:1015E000F8EF0AF0D890483649364A364B364C2A3E
:1015F0004BAEFDEF0AF0FFEF0AF0F2EF0AF0D890E1
:101600004E364F36503651364850445C4950455856
:101610004A5046584B504758D8A011EF0BF013EFE3
:101620000BF01CEF0BF04850445E4950455A4A50AD
:10163000465A4B50475A4E80D8904B324A32493224
:1016400048324C2EFFEF0AF04D50D8B42AEF0BF081
:101650002CEF0BF034EF0BF0511E501E4F1E4E6C52
:10166000000E4F22502251224EC044F04FC045F090
:1016700050C046F051C047F01200000E496E47BE00
:1016800046EF0BF044EF0BF04CEF0BF0466C471EAF
:10169000D8B0472A010E496E45BE53EF0BF051EF0B
:1016A0000BF059EF0BF0446C451ED8B0452A010EE3
:1016B000491A000E4B6E000E4A6E46504710D8B4C1
:1016C00064EF0BF066EF0BF08EEF0BF0010E486E3F
:1016D0006EEF0BF0D89046364736482A47AE73EF88
:1016E0000BF075EF0BF06AEF0BF0D8904A364B36E3
:1016F0004650445C47504558D8A081EF0BF083EF2B
:101700000BF088EF0BF04650445E4750455A4A8034
:10171000D89047324632482E75EF0BF04950D8B476
:1017200094EF0BF096EF0BF09AEF0BF04A6C4B1E18
:10173000D8B04B2A4AC044F04BC045F01200000E0E
:10174000496E45BEA8EF0BF0A6EF0BF0AEEF0BF025
:10175000446C451ED8B0452A010E496E47BEB5EF10
:101760000BF0B3EF0BF0B9EF0BF0466C471ED8B09F
:10177000472A46504710D8B4C0EF0BF0C2EF0BF029
:10178000E6EF0BF0010E486ECAEF0BF0D89046362C
:101790004736482A47AECFEF0BF0D1EF0BF0C6EF3C
:1017A0000BF04650445C47504558D8A0DAEF0BF098
:1017B000DCEF0BF0E0EF0BF04650445E4750455A2B
:1017C000D89047324632482ED1EF0BF04950D8B46A
:1017D000ECEF0BF0EEEF0BF0F2EF0BF0446C451E6C
:1017E000D8B0452A44C044F045C045F012004B6EC5
:1017F00083CF4AF0000E956E000E456E220E446EA9
:10180000000E476E000E466E75EC07F04BC083FF6E
:10181000000E456E210E446E000E476E010E466EA0
:1018200075EC07F0000E456E210E446E000E476EFB
:10183000000E466E75EC07F04AC083FF020E4B188F
:10184000D8B425EF0CF027EF0CF02FEF0CF04B0481
:10185000D8A42DEF0CF02FEF0CF033EF0CF023ECAD
:101860000EF035EF0CF031EC0EF01200000E456E6C
:10187000220E446E000E476E000E466E4EEC06F0D1
:10188000000E456E210E446E000E476E000E466E31
:101890004EEC06F0000E956E23EC0EF023EC0EF0ED
:1018A00023EC0EF023EC0EF023EC0EF0380EF7ECE8
:1018B0000BF023EC0EF023EC0EF0380EF7EC0BF0EF
:1018C00023EC0EF0380EF7EC0BF0380EF7EC0BF0C3
:1018D000060EF7EC0BF00C0EF7EC0BF0010EF7EC2C
:1018E0000BF01200D10EF66E1B0EF76E000EF86EA6
:1018F00002EE00F010EE28F00900F5CFEEFFE55003
:10190000E150FAE12C0EF66E1A0EF76E000EF86E2C
:1019100000EE80F010EE60F00900F5CFEEFFE5502C
:10192000E150FAE18E0EF66E1B0EF76E000EF86EA9
:1019300000EE01F010EE43F00900F5CFEEFFE550A8
:10194000E150FAE100EE58F0100EEE6AE806FDE113
:10195000000EF86E000109EF03F0000E4E6E000E4F
:10196000926E809A809880868084030E4C6E5AC056
:1019700044F05BC045F0000E476E0A0E466E9FECC9
:101980000BF0445046EC0DF0020E4C6E5AC044F081
:101990005BC045F0000E476E0A0E466E3DEC0BF044
:1019A000445046EC0DF00FEC0AF0000E456E640E4C
:1019B000446EE5EC0CF04E2A3B0E4E64E2EF0CF068
:1019C000E4EF0CF0AFEF0CF0120008EF0DF0000E9A
:1019D000466E090E4664EFEF0CF0F1EF0CF0F3EFFA
:1019E0000CF005EF0DF0000E476E020E4764FBEFA2
:1019F0000CF0FDEF0CF0FFEF0CF002EF0DF0472ABA
:101A0000F5EF0CF0462AE9EF0CF04406D8A04506A5
:101A100045BE15EF0DF0455006E14404D8B013EF74
:101A20000DF015EF0DF0E7EF0CF0120003070707BC
:101A300013080503101818181204081001010101F9
:101A40000204040800000000100808040103030356
:101A500001000001181C1C1C1800101802040000D2
:101A60000101010114121010080808080103030302
:101A70000100000F181C1C1C1800101800000000AA
:101A800001010103141210100C0201004D6E4C50A4
:101A9000D8A44DEF0DF04FEF0DF051EF0DF04DC00C
:101AA00065F04C04D8A457EF0DF059EF0DF05BEF43
:101AB0000DF04DC064F0020E4C18D8A462EF0DF08A
:101AC00064EF0DF066EF0DF04DC063F0030E4C189F
:101AD000D8A46DEF0DF06FEF0DF071EF0DF04DC06C
:101AE00062F01200000E456E020E446E000E476E4C
:101AF000000E466E4EEC06F0000E456E030E446E70
:101B0000000E476E000E466E4EEC06F0000E456E5F
:101B1000040E446E000E476E000E466E4EEC06F04C
:101B2000000E456E050E446E000E476E000E466EAA
:101B30004EEC06F0000E956E12004A6E83CF4BF00D
:101B4000000E956E000E456E220E446E000E476E1E
:101B5000010E466E75EC07F04AC083FF000E456E1D
:101B6000210E446E000E476E010E466E75EC07F0B6
:101B7000000E456E210E446E000E476E000E466E3E
:101B800075EC07F04BC083FF31EC0EF01200030739
:101B9000070703000103101818181000001E05099C
:101BA0000101060810000000000010101018457315
:101BB000637574652061206D7573696361566F6329
:101BC0006520506572646575215375612076657A6C
:101BD00021010002000800020004000200040001CC
:101BE00000040008000200040001000400080002D4
:091BF000000800080001000200D9
:101BFA00480E446EE80E456E010E466E000E476EA4
:101C0A0052C048F053C049F04A6A4B6AB7EC0AF02E
:101C1A004404CB6E120044504602F3CF48F0F4CF8E
:101C2A0049F044504702F350492645504602F350C2
:101C3A00492648C044F049C045F01200000E456EDE
:101C4A0031EC0EF0452A310E45642EEF0EF030EFDE
:101C5A000EF025EF0EF01200000E446E442A180E04
:101C6A0044643AEF0EF03CEF0EF033EF0EF0120040
:101C7A0094929494030ECA12CA840C0EBD120C0ECE
:101C8A00BA12120060C044F061C045F01200070E9B
:081C9A0093160F0E95121200C3
:020000040020DA
:08000000FFFFFFFFFFFFFFFF00
:020000040030CA
:0E000000FF027100FF8380FF0FC00FE00F4072
:00000001FF
